:020000040800F2
:10000000480D002045010008BB260008E923000830
:10001000B72600080D0C0008593600080000000043
:10002000000000000000000000000000192B000884
:10003000191A0008000000008D270008952C000800
:100040005F0100085F0100085F0100085F01000810
:100050005F0100085F0100084D1E0008151F000821
:100060005F0100085F010008291F00085F01000808
:100070005F0100085F0100085F0100085F010008E0
:100080005F0100085F0100085F0100085F010008D0
:10009000193600085F0100085F0100085D1F0008B5
:1000A0005F0100085F0100085F0100085F010008B0
:1000B000F52D00085F010008152E00085F010008FB
:1000C0005F0100085F0100085F0100085F01000890
:1000D0005F010008293300085F0100085F01000884
:1000E000811E00085F0100085F0100085F01000831
:1000F0005F0100085F0100085F0100085F01000860
:100100005F0100085F0100085F0100085F0100084F
:100110005F0100085F0100085F0100085F0100083F
:100120005F0100085F0100085F0100085F0100082F
:10013000DFF80CD000F0B2FB00480047A1390008FE
:10014000480D00200648804706480047FEE7FEE7C6
:10015000FEE7FEE7FEE7FEE7FEE7FEE7FEE7FEE777
:10016000952D00083101000840EA01039B0703D0E8
:1001700009E008C9121F08C0042AFAD203E011F8E6
:10018000013B00F8013B521EF9D27047D2B201E0A8
:1001900000F8012B491EFBD270470022F6E710B58C
:1001A00013460A4604461946FFF7F0FF204610BDE5
:1001B000F0B480EA0102D40F4200B2EB410F02D248
:1001C0000246084611464A0042D0C30DDDB2C1F3D3
:1001D000C752AD1A202D35DAC1F3160141F40002E1
:1001E00004B15242C5F1200602FA06F12A41104438
:1001F000B3EBD05F23D0C4B1012DA0EBC35009DC19
:10020000F0BC4FF0004202EAC352DBB200F500003E
:1002100000F0B8BA400000F1807000EBC350A0F1CC
:10022000807040EAD170490009E0490841EAC07194
:10023000A0EBC35000F50000400800EBC350F0BC39
:1002400000F097BA6142012202EB4101001BF6E780
:10025000F0BC704781F00041AAE780F00040A7E7BA
:1002600080EA010210B502F00043400022D04A00AB
:100270001FD0010E01EB1261C0F35600C2F356020B
:1002800040F4000042F40002A0FB022000047F3989
:10029000140400D0401C50EA124001D44000491E12
:1002A000C2B20C0604EBD010401C4008802A02D0D9
:1002B00003E0002010BD20F00100002900DA00203A
:1002C000184310BD30B480EA010202F0004530F05E
:1002D000004221F0004013D090B1C30DD40DC2F301
:1002E0001601C0F31600E41A41F4000140F40002C4
:1002F0007D34914201D3641C00E04900002C02DAF5
:1003000030BC002070474FF400000023914201D31D
:10031000891A034340084FEA4101F7D151B1914294
:1003200002D14FF0004105E002D24FF0010101E09F
:100330006FF0010103EBC450284430BC00F019BA3F
:100340002DE9FE4F804681EA0300C00F0C46009065
:1003500021F0004123F00045B8EB0200A94105D28D
:100360004046214690461C460B46024623F000407C
:10037000104347D0270DC7F30A00C3F30A51029078
:10038000401A019040286BDAC3F3130040F4801B3D
:100390000098924620B10023D2EB030A63EB0B0BCB
:1003A00001985946C0F14002504600F0B1F90646A6
:1003B0000D4650465946019A00F0C9F910EB080065
:1003C0006141002487EA115284EAE7731A4340D05E
:1003D000009A62B3019A012A4FEA075215DC001B0A
:1003E00061EB02014FF0004202EA0752CDE9004200
:1003F000001C41F5801132462B4600F000FA03B094
:10040000BDE8F08F40462146F9E7001B61EB020191
:10041000001C41F5801300185B412018A2F500175D
:1004200047EB030140EAD570B6196D4111E06D0844
:100430004FEA360645EAC0754FEA0752001B61EBEA
:100440000201001C41F5801149084FEA30000019F3
:10045000514132462B4603B0BDE8F04F00F0C0B921
:100460000098012240000023D0EB020263EBE0730E
:10047000009821464FEAE074B8EB000061EB0401FC
:10048000E9E783F000435BE781F0004158E72DE99D
:10049000FE4F81EA030404F0004421F0004100947F
:1004A0004FF0000B23F0004350EA01045ED052EA03
:1004B00003045BD0C3F30A54C1F30A552C44A4F2DD
:1004C000F3340194A0FB0254C1F3130141F48011F1
:1004D000C3F3130343F4801301FB024400FB034EF8
:1004E000840A970A44EA815447EA8357A4FB0768C1
:1004F00002958D0A05FB07854FEA932C04FB0C54EB
:100500002705029D4FEA065847EA1637B5EB08055E
:100510006EEB070C870E920E47EA811742EA8312B0
:10052000A7FB0201B6EB0B0164EB00042B0D43EAC1
:100530000C335E1844EB1C50DA465146E7FB0201CF
:10054000C5F313044FEA0B3343EA14534FEA043262
:10055000019C43EA0603A4F10C040294009CCDE93B
:1005600000B400F04CF903B0BDE8F08F0020014664
:10057000F9E72DE9F04D81EA030404F0004B21F086
:10058000004514464FF0000A23F0004150EA0502EE
:1005900020D054EA01021DD0C5F30A570246C5F324
:1005A0001303C1F31300C1F30A5640F4801543F45A
:1005B0008013A7EB0608101BD64608F2FD3873EB34
:1005C000050002D308F1010801E092185B41B8F17F
:1005D000000F03DA00200146BDE8F08D00204FF443
:1005E0008011064684460EE0171B73EB050705D302
:1005F000121B63EB050306434CEA010C49084FEA62
:10060000300092185B4150EA0107EDD152EA030035
:1006100012D082EA040083EA0501084305D0101BCA
:10062000AB4106D20122002306E000224FF0004336
:1006300002E06FF0010253101AEB06004CEB085178
:1006400010EB0A0041EB0B01BDE8F04D00F0C8B81B
:10065000C10F80EAE0700844CA079623002100F029
:1006600091B896230022114600F08CB800F00042A9
:1006700020F00040C10DC0F3160040F400007F29B7
:1006800001DA00207047962903DCC1F19601C840C9
:1006900001E096398840002AF4D04042704700F0CB
:1006A000004230F000400AD0C10D01F56071C0F386
:1006B000160042EA0151C20840071143704700206A
:1006C0000146704701F0004330B421F0004150EA88
:1006D000010206D00A0DA2F56072C1F31301002ACF
:1006E00002DC30BC00207047440F44EAC104C10062
:1006F000E01830BC00EBC25000F03BB8002801DB32
:10070000C0F10040002901DBC1F100418142704786
:10071000202A04DB203A00FA02F1002070479140C1
:10072000C2F1200320FA03F3194390407047202AB6
:1007300004DB203A21FA02F00021704721FA02F38B
:10074000D040C2F120029140084319467047202A48
:1007500006DBCB17203A41FA02F043EAE07306E0E9
:1007600041FA02F3D040C2F12002914008431946F9
:1007700070470029A8BF7047401C490008BF20F0FF
:100780000100704710B4B0FA80FC00FA0CF050EA97
:10079000010404BF10BC704749B1CCF1200421FA18
:1007A00004F411FA0CF118BF012121430843A3EB13
:1007B0000C01CB1D4FEA00614FEA102042BF002020
:1007C00010BC704700EBC35010440029A4BF10BCFC
:1007D0007047401C490008BF20F0010010BC704762
:1007E00010B5141E73F1000408DA401C41F1000139
:1007F00092185B411A4301D120F0010010BD2DE990
:10080000F04D92469B4611B1B1FA81F202E0B0FA86
:1008100080F220329046FFF77BFF04460F4640EA05
:100820000A0041EA0B0153465A46084313D01146C9
:1008300053EA010019D0C8F140025046FFF777FF94
:1008400005460E46504659464246FFF761FF0843AB
:1008500005D0012004E020463946BDE8F08D002097
:10086000054346EAE0762C4337430A986305E40AD9
:10087000A0EB08000022FD0A44EA47540A3002D5E2
:1008800000200146E9E7010510196941DDE9084545
:1008900000196941BDE8F04DA2E70000064C074D84
:1008A00006E0E06840F0010394E807009847103440
:1008B000AC42F6D3FFF740FC88400008A84000088F
:1008C00021B1826842F00102826003E0826822F076
:1008D00001028260704721B1826842F480728260B6
:1008E00003E0826822F48072826070470EB50121B5
:1008F0000848FFF7F0FF4FF4806081109622002334
:10090000CDE900210290044A02494C31034800F02D
:1009100077FF0EBD00240140BC0600200800024005
:1009200010B500211048FFF7CBFF00210F4800F061
:100930005BFF0F4801880D4801F06CF801210B485E
:1009400000F052FF01210848FFF7BAFF01210648D5
:1009500000F0DBF800BF022001F028F80028FAD0F0
:10096000022000F033FF10BD0024014008000240C7
:100970004C00002010B504461248844208D10121E1
:10098000401502F04FF80021601502F04BF817E017
:100990000D48844208D10121001502F043F80021DE
:1009A000201502F03FF80BE00848844208D10121ED
:1009B000C80302F037F800214FF4004002F032F88B
:1009C00010BD00000024014000280140003C01400F
:1009D000014600208A6802F004020AB1012000E00A
:1009E00000207047014600208A6802F008020AB120
:1009F000012000E00020704730B5024600200023AF
:100A000050680F4C20400D790C6844EA05242043BF
:100A1000506090680B4C2040D1E902542C434D7932
:100A200044EA450420439060D06A20F470000C7CB6
:100A3000641EE4B2234340EA0350D06230BD00009C
:100A4000FFFEF0FFFDF7F1FFF0B504460D46002074
:100A50000021092D11DDE068A5F10A0606EB460725
:100A6000072606FA07F18843A5F10A0606EB4606B3
:100A700003FA06F10843E0600CE0206905EB450746
:100A8000072606FA07F1884305EB450603FA06F147
:100A900008432061072A0FDA606B561E06EB8607B3
:100AA0001F2606FA07F18843561E06EB860605FA4E
:100AB00006F10843606322E00D2A0FDA206BD61F8F
:100AC00006EB86071F2606FA07F18843D61F06EBBA
:100AD000860605FA06F10843206310E0E06AA2F1F9
:100AE0000D0606EB86071F2606FA07F18843A2F1DA
:100AF0000D0606EB860605FA06F10843E062F0BD36
:100B0000816841F008018160704721B1826842F438
:100B1000A002826003E0826822F4A0028260704733
:100B2000816841F0040181607047000010B5012028
:100B300002F094FD01200449087004490870132252
:100B400001F0DEFC10BD0000280000205806002047
:100B500010B52648007848B14FF4967000F05DFF5C
:100B6000012002F090FD0020204908702048007804
:100B700028B1012002F09CFD00201D4908701D488D
:100B80000078E8B11C480078401C1B4908700846F2
:100B900000781A49097888420CDD002002F073FDC4
:100BA000002002F085FD002002F098FD002012498F
:100BB000087002E0012002F091FD00200D4908704C
:100BC0000F48007828B1002002F088FD00200C4971
:100BD00008700C48007840B100200A4908700A49A2
:100BE00008701322012001F08BFC10BD30000020A2
:100BF0002B0000202F0000202D00002031000020BD
:100C00002C0000202E0000205806002000BFFEE728
:100C1000B1F5007F3AD00FDC202928D006DC01296D
:100C20001CD004291DD0082940D11DE0402921D025
:100C3000B1F5807F3AD126E0B1F5004F31D006DC26
:100C4000B1F5806F25D0B1F5006F2FD124E0B1F55B
:100C5000803F12D0B1F5003F28D111E0154A8260E3
:100C600025E00822C26022E01022C2601FE00822B4
:100C700002611CE01022026119E00822426016E0C5
:100C80001022426013E00422426010E0042242601D
:100C90000DE0042242600AE00022826104224260E8
:100CA00005E0002282610422426000E000BF00BF34
:100CB000704700000101010010B50021837A012274
:100CC00002FA03F13D4A126842F001023B4B1A60FE
:100CD0003A4A1C3212688A43384B1C331A60027B32
:100CE000CAB9364A0C3212688A43344B0C331A6044
:100CF0004288C38842EA0343304A4032847A42F849
:100D000034300288838842EA03432C4A4032847A92
:100D100002EBC4025360027B012A19D1274A0C322C
:100D200012680A43254B0C331A604288038842EA52
:100D30000343224A4032847A42F83430C28883889E
:100D400042EA03431D4A4032847A02EBC4025360F4
:100D5000C27A3AB9194A121D12688A43174B1B1DF1
:100D60001A6006E0154A121D12680A43134B1B1D38
:100D70001A60028932B9114A143212688A430F4B41
:100D800014331A600289012A06D10C4A14321268FF
:100D90000A430A4B14331A60427B012A06D1074AE0
:100DA0001C3212680A43054B1C331A60034A12684E
:100DB00022F00102014B1A6010BD000000660040E5
:100DC00070B504460D46002660692840002871D0A1
:100DD000B5F5807F5CD010DC082D35D006DC012D08
:100DE00020D0022D24D0042D72D127E0102D31D037
:100DF000202D35D0402D6BD138E0B5F5004F60D0B7
:100E000009DCB5F5007F49D0B5F5806F4CD0B5F55C
:100E1000006F5DD14FE0B5F5803F2DD0B5F5003FB7
:100E200056D12FE0A0682D4900F074FA064651E033
:100E3000E068032100F06EFA06464BE0E068082106
:100E400000F068FA064645E0E068102100F062FA1A
:100E500006463FE02069032100F05CFA064639E0CF
:100E60002069082100F056FA064633E02069102177
:100E700000F050FA06462DE06068082100F04AFABA
:100E8000064627E06068102100F044FA064621E09B
:100E9000A069012100F03EFA06461BE0A06902218C
:100EA00000F038FA064615E0A069042100F032FA95
:100EB00006460FE00FE0A069702100F02BFA06460D
:100EC00008E06068042100F025FA064602E0FFE72A
:100ED000002600BF00E00026304670BD0101010081
:100EE0001AB143690B43436102E043698B43436199
:100EF000704730B5024600200023146824F0020435
:100F00001460146844F00104146000E05B1C546831
:100F100004F001041CB94FF6FF74A342F6D15468E3
:100F200004F001040CB900206CE08C79012C04D190
:100F3000146844F08004146003E0146824F0800412
:100F40001460CC79012C04D1146844F0400414607E
:100F500003E0146824F0400414600C7A012C04D1DE
:100F6000146844F02004146003E0146824F02004A2
:100F700014604C7A012C04D1146844F010041460FD
:100F800003E0146824F0100414608C7A012C04D15E
:100F9000146844F00804146003E0146824F00804A2
:100FA0001460CC7A012C04D1146844F00404146059
:100FB00003E0146824F0040414608C78A407CD784E
:100FC00044EA05640D7944EA05444D7944EA055440
:100FD0000D886D1E2C43D461146824F00104146044
:100FE000002300E05B1C546804F001041CB14FF6C0
:100FF000FF74A342F6D1546804F001040CB1002040
:1010000000E0012030BD10B500F5D87303EB0113EB
:101010001B6803F004031372137A53B900F5D873F5
:1010200003EB01131B6840F2FF7404EA535313608F
:1010300009E000F5D87303EB01131B686FF06044FF
:1010400004EAD303536000F5D87303EB01131B6864
:1010500003F00203537200F5D87303EB01135B68CE
:1010600003F00F03937200F5D87303EB01135B6871
:101070001B0AD37400F5D87303EB01139B68D3727A
:1010800000F5D87303EB01139B681C0A147300F579
:10109000D87303EB01139B681C0C547300F5D873D1
:1010A00003EB01139B681B0E937300F5D87303EBDE
:1010B0000113DB68D37300F5D87303EB0113DB680E
:1010C0001C0A147400F5D87303EB0113DB681C0CC5
:1010D000547400F5D87303EB0113DB681B0E937493
:1010E00021B9C36843F02003C36003E0036943F000
:1010F0002003036110BD10B502460020936803F081
:101100008063B3F1806F00D110E0936803F0006357
:10111000B3F1006F01D1012008E0936803F0805320
:10112000B3F1805F01D1022000E00420042874D0D4
:1011300002F5C07303EB00131B6803F0010402F512
:10114000C07303EB00131C600B7A7BB94B7A0C88DD
:1011500043EA445302F5C07404EB001424682343AB
:1011600002F5C07404EB0014236010E00B7A4C68A5
:1011700043EAC4034C7A234302F5C07404EB001421
:101180002468234302F5C07404EB001423608B7AB7
:1011900003F00F038B7202F5C07303EB00135B685F
:1011A00023F00F0402F5C07303EB00135C6002F53B
:1011B000C07303EB00135B688C7A234302F5C074A1
:1011C00004EB001463608B7B1C064B7B44EA0344F6
:1011D0000B7B44EA0323CC7A234302F5C07404EB6F
:1011E0000014A3608B7C1C064B7C44EA03440B7CFC
:1011F00044EA0323CC7B234302F5C07404EB0014C0
:10120000E36002F5C07303EB00131B6843F00104B5
:1012100002F5C07303EB00131C6010BD10B502464D
:10122000002321B1012907D002290FD109E09068DC
:101230001D4C00EA04030BE090681C4C00EA040318
:1012400006E090681A4C00EA040301E0002300BFA6
:1012500000BF184C181BA34216D007DC83B16FF0F7
:101260008060184470B1022818D111E0B0F5007FF9
:1012700010D0114C204448B1B0F5003F0ED10BE026
:1012800002230DE000230BE0002309E0002307E028
:10129000012305E0012303E0012301E0002300BF57
:1012A00000BFD8B210BD0000030000040003000816
:1012B00000000310000100080001FFF72DE9F047CE
:1012C000074688461446994600250CE0681C3E5C9B
:1012D0003011214600F00EF804462146304600F059
:1012E00009F804466D1C4545F0D384EA0900BDE8C1
:1012F000F0870000024602F00F0080EA2133044824
:1013000030F8130080EA011081B2084670470000EF
:10131000684000080246002002EA01030BB10120E8
:1013200000E00020704700B50021012001F09CFC86
:101330000021022001F098FC0021032001F094FC20
:1013400000BD70B504460020703420710820E070A4
:101350000020607020700820A070703C002508E01C
:10136000C5EBC50104EB41000E21FEF716FF681C1A
:10137000C5B2082DF4DB70BD70B502460D4692F87B
:10138000730092F87260B04201D1002070BD92F8F3
:101390007100C0EBC00002EB40012B46002405E0C9
:1013A000087818705B1C491C601CC4B20E2CF7DB5B
:1013B00012F8710F401C10709078401C90701078DB
:1013C0005678713AB04202DB002082F871000120A9
:1013D000DCE770B505460C4694F8730008B90020A8
:1013E00070BD94F87000C0EBC00004EB40002968A9
:1013F000016094F87000C0EBC00004EB4000A97AD3
:101400000171AA7A94F87010C1EBC10104EB41019B
:10141000481D05F10B01FEF7A7FE94F87000C0EB24
:10142000C00004EB4000E97C417314F8700F401CCD
:101430002070E078401EE0702078A178703C8842EF
:1014400002DB002084F870000120C9E770B5044673
:101450000D4694F8730094F87210884201D1002070
:1014600070BD94F87100C0EBC00004EB4000006850
:10147000286094F87100C0EBC00004EB40000079D4
:10148000A872AA7A94F87100C0EBC00004EB400087
:10149000411D05F10B00FEF767FE14F8710F401CAB
:1014A0002070A078401CA07020786178713C884240
:1014B00002DB002084F871000120D1E708B5FF208D
:1014C00040F2023303224FF401710090002000F03B
:1014D00015F84FF491704FF489735A1CD11E009087
:1014E000012000F00BF840F20130431E40F22512BB
:1014F000911E0090022000F001F808BD2DE9FF4187
:1015000004460D4616461F46DDF828808DF80A4031
:1015100001208DF80B0000208DF80C004FF6FF70B5
:1015200000EA4510ADF802004FF6FF7000EA4610E1
:10153000ADF806004FF6FF7000EA4710ADF8000066
:101540004FF6FF7000EA4810ADF804000020ADF837
:10155000080001208DF80D006846FFF7ADFBBDE8DF
:10156000FF81000000B585B00121084601F04AFA6C
:101570004FF4A06001F0DAF801214FF4EA1000F016
:1015800041FE0121082001F03DFA0121480601F049
:1015900029FA4FF40070ADF8100003208DF8120006
:1015A00018208DF8130004A9214800F09FFD4FF486
:1015B0008070ADF8100048208DF8130004A91C4875
:1015C00000F094FD14208DF8000000208DF801003B
:1015D0008DF8020001208DF80300684601F06EF8D6
:1015E00000208DF80A008DF80B008DF80C008DF8A6
:1015F0000D008DF80E008DF80F008DF806008DF8A7
:10160000070001208DF8080002208DF809000C2049
:10161000ADF8040001A90748FFF76BFCFFF74EFF88
:10162000012202210348FFF75BFC05B000BD00006A
:10163000000C01400064004001460868012800D108
:1016400001E00120704700BF0020FBE71FB569469D
:101650000648FFF791FE0446012C06D10098B0F52C
:10166000897F00D100E000BF00BF1FBD200800201F
:1016700070B586B001A91148FFF7E8FE0546012DB7
:1016800015D100208DF80C008DF80D0001A90C4833
:10169000FFF731FD0646002401E0601CC4B231466C
:1016A0000748FFF7BBFD012801D0FF2CF5DBFF2C1D
:1016B00002DD002006B070BD0120FBE79508002088
:1016C0000064004010B5FFF74DFF0348FFF739FEF7
:1016D0000248FFF736FE10BD2008002095080020C4
:1016E00010B5FFF7C5FFFFF7B1FF10BD2DE9FF5F94
:1016F00004460D4616461F46DDE910ABDDE90E89AE
:101700002A48844204D10121042001F07BF91EE023
:101710002748844204D10121082001F073F916E022
:101720002448844204D10121102001F06BF90EE01D
:101730002148844204D10121202001F063F906E010
:101740001E48844203D10121402001F05BF9ADF82D
:101750000C5003208DF80E0048208DF80F0003A9CF
:10176000204600F0C3FC3946304600F09FFCCDF81F
:10177000048000208DF808008DF809908DF80AA0EB
:1017800001A800F049FC404600F02CFC8DF800B0A8
:1017900012988DF8010013988DF8020001208DF841
:1017A0000300684600F08AFFBDE8FF9F0008014083
:1017B000000C0140001001400014014000180140DD
:1017C0000146080A70470146C8B2704700F08051D0
:1017D00011B10349086001E0024948607047000008
:1017E000040402400000024021B1026842F00102FC
:1017F000026004E002684FF6FE731A400260704710
:101800002DE9F0478CB080460C4615461E46DDE9B2
:10181000159A149F0121084601F0D4F8404600F0C3
:101820001FF80E4807800194029503960497002044
:10183000059080200690CDF81C90CDF820A00020C7
:1018400009904FF480500A9000200B9001A9404667
:1018500000F0C2F80CB0BDE8F08700004C0000209A
:1018600001684FF6FE721140016000210160416085
:101870008160C1604B49884208D14A4908394968AA
:1018800041F00F01474A083A51608AE04549143156
:10189000884208D143490839496841F0F001414A7A
:1018A000083A51607DE03F492831884208D13D49DE
:1018B0000839496841F470613A4A083A516070E069
:1018C00038493C31884208D136490839496841F4E1
:1018D0007041344A083A516063E0324950318842DD
:1018E00008D130490839496841F470212D4A083A35
:1018F000516056E02B496431884208D129490839A2
:10190000496841F47001274A083A516049E0254985
:101910007831884208D123490839496841F070611B
:10192000204A083A51603CE01F49884206D1011F15
:10193000096841F00F01021F116032E01A491431A9
:10194000884208D11849091F096841F0F001164A78
:10195000121F116025E014492831884208D112492C
:10196000091F096841F470610F4A121F116018E0E5
:101970000D493C31884208D10B49091F096841F4DF
:101980007041094A121F11600BE00749503188422B
:1019900007D10549091F096841F47021024A121F45
:1019A0001160704708000240080402400146002010
:1019B000002201F0805313B1054B1A6801E0054B7A
:1019C0001A6802EA01030BB1012000E00020704711
:1019D000000402400000024010B50022026847F6F1
:1019E000F0739A430C6A8B6823430C6923434C6958
:1019F00023438C692343CC6923434C6A23438C6A79
:101A000023431A430260CB6843600B6883604B68D2
:101A1000C36010BD41607047704701B508E042F2F5
:101A2000FF7000E0401E0028FCD10099491E009183
:101A300000990029F3D108BD08B501217C2000F0F0
:101A4000E1FF4FF48050ADF8000010208DF8030046
:101A500003208DF802006946D84800F047FB4FF498
:101A60008051D64800F01FFC4FF40050ADF8000044
:101A700010208DF8030003208DF802006946CF483E
:101A800000F034FB4FF40051CC4800F00CFC4FF454
:101A90008040ADF8000010208DF8030003208DF881
:101AA00002006946C54800F021FB4FF48041C3485D
:101AB00000F0F9FB4FF40040ADF8000010208DF865
:101AC000030003208DF802006946BC4800F00EFBBD
:101AD0004FF40041B94800F0E6FB4FF48070ADF8D8
:101AE000000010208DF8030003208DF802006946E5
:101AF000B34800F0FBFA4FF48071B14800F0D3FB1B
:101B00004FF40070ADF8000010208DF803000320A2
:101B10008DF802006946AA4800F0E8FA4FF4007117
:101B2000A74800F0C0FB4FF48060ADF80000102023
:101B30008DF8030003208DF802006946A04800F0EC
:101B4000D5FA4FF480619E4800F0ADFB4FF4006081
:101B5000ADF8000010208DF8030003208DF802007E
:101B60006946974800F0C2FA4FF40061944800F0CB
:101B70009AFB4FF48050ADF8000010208DF8030060
:101B800003208DF8020069468D4800F0AFFA4FF44B
:101B900080518B4800F087FB4FF40050ADF80000F7
:101BA00010208DF8030003208DF802006946844858
:101BB00000F09CFA4FF40051814800F074FB4FF4A0
:101BC0008040ADF8000010208DF8030003208DF850
:101BD000020069467A4800F089FA4FF4804178485B
:101BE00000F061FB4FF40040ADF8000010208DF8CC
:101BF000030003208DF802006946714800F076FA70
:101C00004FF400416E4800F04EFB4020ADF800005C
:101C100010208DF8030003208DF802006946694802
:101C200000F064FA4021674800F03DFB8020ADF8E9
:101C3000000010208DF8030003208DF80200694693
:101C4000604800F053FA80215E4800F02CFB4FF40E
:101C50008070ADF8000010208DF8030003208DF88F
:101C600002006946574800F041FA4FF48071554828
:101C700000F019FB4FF40070ADF8000010208DF853
:101C8000030003208DF8020069464E4800F02EFA4A
:101C90004FF400714B4800F006FB4FF48070ADF834
:101CA000000010208DF8030003208DF80200694623
:101CB000454800F01BFA4FF48071434800F0F3FAF6
:101CC0004FF40060ADF8000010208DF803000320F1
:101CD0008DF8020069463C4800F008FA4FF40061B4
:101CE000394800F0E0FA4FF48050ADF800001020C1
:101CF0008DF8030003208DF802006946324800F099
:101D0000F5F94FF48051304800F0CDFA4FF480607F
:101D1000ADF8000010208DF8030003208DF80200BC
:101D20006946284800F0E2F94FF48061254800F048
:101D3000BAFA1020ADF800008DF8030003208DF8EA
:101D4000020069461E4800F0D1F910211C4800F03D
:101D5000AAFA0820ADF8000010208DF80300032037
:101D60008DF802006946164800F0C0F908211448B1
:101D700000F099FA0420ADF8000010208DF803005F
:101D800003208DF8020069460D4800F0AFF90421E8
:101D90000B4800F088FA4020ADF8000004208DF8D0
:101DA000030003208DF802006946044800F09EF904
:101DB0004021024800F077FA08BD0000000C014005
:101DC00000140140001001400008014010B500203F
:101DD00001F044FC002001F056FC002001F068FCFA
:101DE000002001F07BFC002001F08DFC002001F0C0
:101DF0009FFC002001F0B1FC002001F0C3FC322167
:101E0000012000F031FF6421022000F02DFF0021AD
:101E1000032000F029FF4FF47A60FFF7FEFD002059
:101E2000054908700549087005490870054908709A
:101E30000549087010BD00002B0000203000002074
:101E40002F0000202C0000202E00002010B50120C3
:101E500000F0CEF878B13220FFF7DFFD012106480F
:101E600000F018FA08B1012000E0002003490870D2
:101E7000012000F0B7F810BD000C01402F00002039
:101E800010B54FF4806000F0B3F818B14FF48060E3
:101E900000F0A8F84FF4006000F0AAF818B14FF471
:101EA000006000F09FF84FF4805000F0A1F888B176
:101EB0003220FFF7B2FD4FF48051144800F0EAF9E8
:101EC00008B1012000E00020114908704FF4805053
:101ED00000F088F84FF4005000F08AF818B14FF481
:101EE000005000F07FF84FF4804000F081F818B106
:101EF0004FF4804000F076F84FF4004000F078F89E
:101F000018B14FF4004000F06DF810BD001801400A
:101F10002E00002010B5022000F06AF810B1022057
:101F200000F060F810BD000010B5102000F060F85F
:101F300078B13220FFF771FD1021064800F0AAF9B0
:101F400008B1012000E0002003490870102000F0D3
:101F500049F810BD001001402B00002010B52020D2
:101F600000F046F810B1202000F03CF8802000F08E
:101F70003FF878B13220FFF750FD8021164800F07D
:101F800089F908B1012000E0002014490870802080
:101F900000F028F84FF4807000F02AF818B14FF4E0
:101FA000807000F01FF84FF4007000F021F888B145
:101FB0003220FFF732FD4FF40071074800F06AF954
:101FC00008B1012000E00020054908704FF40070BE
:101FD00000F008F810BD0000001801402F0000209C
:101FE0002C000020014908607047000014040140E3
:101FF000014600200022074B1B6803EA0102054B43
:1020000014331B680B4013B10AB1012000E000201B
:102010007047000000040140002123498279002A12
:102020003AD00A46126803689A430B461A600A1DA2
:10203000126803689A430B1D1A60027911440A68FA
:1020400003681A430A60184A0832126803689A4300
:10205000154B08331A601A1D126803689A43124B15
:102060000C331A604279102A0ED11A1F12680368C5
:102070001A430D4B08331A601A1D126803681A437D
:10208000094B0C331A600DE00749427911440A6884
:1020900003681A430A6005E0027911440A6803687C
:1020A0009A430A60704700000004014030B50022E6
:1020B0008B071C0F0F2303FA04F20B4B8C1053F801
:1020C00024309343084C8D1044F8253023468C105F
:1020D00053F824308C07240F00FA04F42343024CF5
:1020E0008D1044F8253030BD080001402DE9F04145
:1020F000024600250026002000230024002791F836
:1021000003C00CF00F0591F803C00CF0100CBCF1EB
:10211000000F03D091F802C04CEA050591F800C009
:10212000BCF1000F31D0146800202BE04FF0010CFF
:102130000CFA00F3B1F800C00CEA03069E4220D16D
:1021400083004FF00F0C0CFA03F7BC4305FA03FCB5
:102150004CEA040491F803C0BCF1280F06D14FF0FB
:10216000010C0CFA00FCC2F814C00AE091F803C09C
:10217000BCF1480F05D14FF0010C0CFA00FCC2F87D
:1021800010C0401C0828D1D31460B1F800C0BCF1C5
:10219000FF0F34DD546800202EE000F1080C4FF0F2
:1021A000010808FA0CF3B1F800C00CEA03069E42DD
:1021B00021D183004FF00F0C0CFA03F7BC4305FA52
:1021C00003FC4CEA040491F803C0BCF1280F05D1CC
:1021D00000F1080C08FA0CF8C2F8148091F803C05A
:1021E000BCF1480F07D100F1080C4FF0010808FAC4
:1021F0000CF8C2F81080401C0828CED35460BDE80B
:10220000F0810000F0B50A460023002400210025DB
:1022100000F00046B6F1004F02D11D4EF16901E019
:102220001B4E7168C0F3034583B200F44016B6F547
:10223000401F08D121F07061154E766826F0706657
:10224000134F7E6012E000F48016B6F5801F06D1B1
:10225000032606FA05F4A14341F0706106E0460D3D
:10226000360103FA06F6B14341F0706122B1460D22
:10227000360103FA06F6314300F00046B6F1004F8E
:1022800002D1034EF16101E0014E7160F0BD00002A
:10229000000001400246002093680B400BB1012072
:1022A00000E000207047416170470161704770B5E0
:1022B00002460B4600212EE0481CC4B227E001EB89
:1022C000410002EB400030F8130004EB440602EB3F
:1022D000460636F81360B04217DA01EB410002EB14
:1022E000400030F8135004EB440002EB400030F89B
:1022F000130001EB410602EB460626F8130004EB3F
:10230000440002EB400020F81350601CC4B2322C91
:10231000D5DB481CC1B23229CEDB002500210AE002
:1023200001F1140000EB400002EB400030F8130014
:102330000544481CC1B20A29F2DB0A20B5FBF0F0C3
:1023400080B270BD2DE9F0470646012E04D0022E62
:1023500019D0032E3DD129E0FEF7E2FA00211F48F3
:10236000FFF7A5FF8146FEF77CF905462846FEF7F4
:102370007DF98146D2221A4901F09AFA05462C4687
:102380001848056026E001211448FFF790FF8146B8
:10239000FEF767F907463846FEF768F98146D2220C
:1023A0000F4901F085FA07463C4613E002210B482D
:1023B000FFF77DFF8146FEF754F980464046FEF761
:1023C00055F98146D222064901F072FA8046444608
:1023D00000E000BF00BF2046BDE8F087BC0600203B
:1023E000D83900083C00002000BFFEE710B52248A5
:1023F000C0782249087020480079214908701F4898
:102400000078102837D108460078133806282BD2D8
:10241000DFE800F00A030D12222701201949087095
:10242000142200F06DF820E0FEF780FB1DE012485A
:1024300040791549088018E00F4840791349088011
:102440000846008800EB4001C1EBC0100121C1EB40
:10245000C0000E49088008E0074840790C49087020
:1024600003E000F05BFB00E000BF00BF4FF4007131
:102470000148FDF792FE10BD580200201C0000200C
:102480001D000020580600203600002034000020E7
:10249000310000202DE9F04104460D461646A01DEE
:1024A00087B24FF000082420144908703846FFF71F
:1024B0008AF9124948703846FFF782F90F49887047
:1024C0000846C5700671B91E00234FF6FF72401C06
:1024D000FEF7F4FE80464046FFF775F9611D074A96
:1024E00050544046FFF76CF90146A01D034A1154B1
:1024F0002321E01D11543846BDE8F0815804002026
:102500002DE9F04104460E46174602254FF000081B
:10251000224631460948FDF727FEA0463A461021DB
:102520004046FFF7B7FF284485B229460348401FBD
:1025300000F07CF80020BDE8F08100005D04002080
:102540001FB54FF4E13000900020ADF80400ADF865
:102550000600ADF80800ADF80C000C20ADF80A003C
:102560006946094800F0E2FF012240F22551064881
:1025700000F0B7FF4021044800F058FF0121024855
:1025800000F06CFF1FBD00000038014008B54FF49B
:102590000070ADF8000018208DF8030003208DF8BE
:1025A000020069460748FFF7A1FD4FF48060ADF8CF
:1025B000000004208DF8030069460248FFF796FDED
:1025C00008BD00000008014010B50121880300F09B
:1025D00019FA0121084600F015FA0121042000F043
:1025E00011FAFFF7D3FF00F005F8FFF7A9FF00F09D
:1025F00037F810BD08B525208DF8000000208DF8B3
:1026000001008DF8020001208DF80300684600F0FB
:1026100055F808BD10B50448007820B100200249E3
:102620000870FFF7E3FE10BD1F00002070B50446E0
:102630000D460A4800880BE014F8011B074800F01B
:10264000E6FF00BF4021054800F014FF0028F9D044
:102650002800A5F101018DB2EED170BD0038014016
:102660001FB50121084600F0BDF90920ADF80800AA
:1026700040F2CF20ADF804000020ADF80A00102091
:10268000ADF8060001A9800600F00CFD01221146FC
:10269000900700F048FC1C208DF8000001208DF808
:1026A000010000208DF8020001208DF8030068462B
:1026B00000F004F81FBD00BFFEE7704770B50021B1
:1026C00000230F22C47804B3154C246804F4E0649A
:1026D000C4F5E064210AC1F10403CA40447804FA55
:1026E00003F184781440214309010E4C0678A1556A
:1026F000047804F01F050124AC4005786D11AD008D
:1027000005F1E025C5F8004109E0047804F01F0553
:102710000124AC40044D0678761145F8264070BD82
:102720000CED00E000E400E080E100E0024901433C
:10273000024A1160704700000000FA050CED00E04D
:1027400000200D49486008608860C860C861086260
:102750000A4808610A4848610A4888610A4848628C
:10276000002088620548C8624FF07C5008634FF42F
:10277000FA60888670470000E80700200000A0404B
:10278000000070410000A041000048437047000075
:1027900000B587B001200A22CDE90202049005901D
:1027A0000820102104230222CDE900102048FEF762
:1027B0009DFF01200622CDE9020204900590082029
:1027C000012100230A46CDE900101A48FEF78EFFCA
:1027D00001201722CDE902020490059008208021F3
:1027E00007230422CDE900101348FEF77FFF0120E4
:1027F0001722CDE9020204900590082081010923E7
:102800000422CDE900100C48FEF770FF01202822B9
:10281000CDE9020204900590082041020C23042215
:10282000CDE900100448FEF761FF07B000BD0000CD
:1028300000100140000C01400018014070B5044632
:102840000D46152C73D2DFE804F0960B12192027E1
:102850002E353C434A51585F656B737A81888F00EF
:102860002A464FF48051454800F090F884E02A460B
:102870004FF40051414800F089F87DE02A464FF4BA
:1028800080413E4800F082F876E02A464FF400414D
:102890003A4800F07BF86FE02A464FF480713848E0
:1028A00000F074F868E02A464FF40071344800F0F4
:1028B0006DF861E02A464FF48061314800F066F817
:1028C0005AE02A464FF400612D4800F05FF853E0CB
:1028D0002A464FF480512A4800F058F84CE02A4626
:1028E0004FF40051264800F051F845E02A464FF4D5
:1028F0008041234800F04AF83EE02A464FF4004168
:102900001F4800F043F837E02A4640211D4800F0F8
:102910003DF831E02A4680211A4800F037F82BE0D4
:102920002A464FF48071174800F030F824E022E086
:102930002A464FF40071134800F028F81CE02A469C
:102940004FF48071104800F021F815E02A464FF44A
:1029500000610D4800F01AF80EE02A464FF480514D
:10296000094800F013F807E02A464FF48061054853
:1029700000F00CF800E000BF00BF70BD000C01408B
:1029800000140140001001400008014070B50546E8
:102990000E461446012C04D131462846FFF785FC2B
:1029A00003E031462846FFF77EFC70BD014600205B
:1029B000034A506820F440400843506070470000CC
:1029C0000010024029B1064A52690243044B5A6181
:1029D00004E0034A52698243014B5A617047000088
:1029E0000010024029B1064AD2690243044BDA6161
:1029F00004E0034AD2698243014BDA617047000068
:102A00000010024029B1064A92690243044B9A61C0
:102A100004E0034A92698243014B9A6170470000C7
:102A20000010024029B1064AD2680243044BDA6022
:102A300004E0034AD2688243014BDA607047000029
:102A40000010024030B500210022002400232D4D4B
:102A50006D6805F00C0121B1042905D0082923D1A6
:102A600005E0294D056022E0274D05601FE0254D5A
:102A70006D6805F47012234D6D6805F480340225ED
:102A800005EB92421CB9214D554305600BE01D4DED
:102A90006D6805F400351DB11C4D5543056002E01D
:102AA000194D5543056002E0174D056000BF00BF9A
:102AB000144D6D6805F0F0010909154D6B5C056852
:102AC000DD4045600F4D6D6805F4E061090A104D69
:102AD0006B5C4568DD4085600A4D6D6805F46051AA
:102AE000C90A0B4D6B5C4568DD40C560054D6D68DE
:102AF00005F44041890B074D6B5CC568B5FBF3F5E8
:102B0000056130BD0010024000127A0000093D004E
:102B100000000020100000207047000010B52820A1
:102B2000FEF77BFF00201149087020211048FFF7B5
:102B3000B1FB40B101210F48FFF7ACFB08B1012008
:102B400004E0002002E0012000F0B2FD0A49087014
:102B50000A20FEF762FF02210648FFF79BFB08B13F
:102B6000012000E000200549087010BD2D00002064
:102B700000100140000C01402F0000202C0000201C
:102B800010B500F001F810BD0CB5002001900090C8
:102B90003348006840F480303149086000BF304855
:102BA000006800F4003000900198401C01900098EB
:102BB00018B90198B0F5A06FF1D12948006800F468
:102BC000003010B10120009001E00020009000983A
:102BD000012843D12348006840F0100021490860D3
:102BE0000846006820F0030008600846006840F0CE
:102BF000020008601A484068194948600846406861
:102C000048600846406840F4806048600846406874
:102C100020F47C1048600846406840F4E8104860A2
:102C20000846006840F08070086000BF0C480068EB
:102C300000F000700028F9D00948406820F0030037
:102C4000074948600846406840F00200486000BFFD
:102C50000348406800F00C000828F9D10CBD0000C2
:102C60000010024000200240012804D0022805D0B4
:102C700003280BD106E0064A118007E0044A121F20
:102C8000118003E04FF08042118700BF00BF704702
:102C90003804004010B500F03BFB1D480068401CA4
:102CA0001B4908601B480088401C1A4908800846D8
:102CB0000088B0F5167F0DDB002008801648174904
:102CC000096801601648007820B9112212490820CD
:102CD000FFF716FC13480078B0B113480088401C79
:102CE0001149088011480088401E098888420EDA80
:102CF00000200D49088000F0B1FC0020094908704F
:102D000001200B49087002E000200749088010BD2F
:102D10005000002014000020580600203C00002035
:102D2000320000202800002016000020340000207F
:102D30003000002030B51449B1F1807F01D301206B
:102D40001DE021F07F40401E4FF0E02250615017FF
:102D50000F22002807DA13071D0E0C4B00F00F049A
:102D6000241F1D5503E013071C0E094B1C5400BF04
:102D700000204FF0E022906107201061002008B190
:102D800000BFFEE730BD00004019010018ED00E073
:102D900000E400E010B51348006840F0010011495C
:102DA000086008464068104908400E4948600846D7
:102DB00000680E4908400B4908600846006820F486
:102DC000802008600846406820F4FE0048604FF408
:102DD0001F008860FFF7D4FE4FF0006004490860D0
:102DE00010BD0000001002400000FFF8FFFFF6FEDB
:102DF00008ED00E010B50121880700F083F840B12C
:102E000000214FF0804000F062F80121880700F0B7
:102E10005BF810BD10B501210F4800F073F8C8B180
:102E200001210D4800F050F80C48008890B90C487A
:102E30000088401C0A49088008460088042809DDEB
:102E400000200880012007490870FFF77BFA002066
:102E50000449087010BD0000000800403800002040
:102E600018000020320000207FB505460C460121E5
:102E70000420FFF7B7FDADF80850ADF8044000207E
:102E8000ADF80A00ADF8060001A90E4800F00AF9F5
:102E9000012211460B4800F046F81E208DF8000074
:102EA00001208DF8010004208DF8020001208DF82A
:102EB00003006846FFF702FC0121024800F007F812
:102EC0007FBD000000080040CA430282704721B164
:102ED000028842F00102028004E002884FF6FE738D
:102EE0001A400280704731B1B0F8442042F40042E9
:102EF000A0F8442005E0B0F84420C2F30E02A0F888
:102F00004420704730B50246002000230024158A73
:102F100005EA0103958905EA010413B10CB101200A
:102F200000E0002030BD1AB183890B43838102E0A9
:102F300083898B438381704770B50024002200236E
:102F4000058C4FF6FE7635400584028C8388048B11
:102F50004FF68F752C40B51E2C400D882C43751EE6
:102F60002A400D892A434D882A43144DA8420BD08C
:102F7000134DA84208D0134DA84205D0124DA842C7
:102F800002D0124DA84213D14FF6F7752A404D8951
:102F90002A434FF6FB752A408D882A434FF6FF657A
:102FA0002B404FF6FF552B408D892B43CD892B436A
:102FB00083800483CD888586028470BD002C014007
:102FC00000340140004001400044014000480140FD
:102FD0000A460021018B4FF6F77319401143018314
:102FE0007047000070B5002400220023058C4FF6C6
:102FF000EF7635400584028C8388048B48F6FF7594
:103000002C404FF6FF452C400D884FF6FF7606EA20
:1030100005252C434FF6DF752A400D8906EA051574
:103020002A434D8806EA05152A43154DA84202D0C9
:10303000144DA8421DD14FF67F752A404D894FF699
:10304000FF7606EA05152A434FF6BF752A408D889C
:1030500006EA05152A434FF6FF352B404FF2FF7560
:103060002B408D8906EA85052B43CD8906EA850527
:103070002B4383800483CD880587028470BD0000C4
:10308000002C0140003401400A460021018B4FF220
:10309000FF7319404FF6FF7303EA022319430183BC
:1030A00070470000002202881D4B98420ED01D4B35
:1030B00098420BD0B0F1804F08D01B4B984205D0FE
:1030C0001A4B984202D01A4B984204D14FF68F7394
:1030D0001A404B881A43174B984207D0164B984218
:1030E00004D04FF6FF431A40CB881A4302808B88E6
:1030F00083850B8803850A4B98420BD0094B984275
:1031000008D00E4B984205D00D4B984202D00D4B83
:10311000984201D10B7A0386012383827047000015
:10312000002C014000340140000400400008004031
:10313000000C00400010004000140040004001401E
:10314000004401400048014010B5FDF7CFFB00F0FE
:103150003DFB00F003F8FFF7F3FA10BD10B500F0E7
:1031600005F800F06BF8FEF7DEF810BD00B589B089
:1031700001210846FFF746FC01210220FFF732FC3F
:1031800001210820FFF73EFC01212948FFF73AF80A
:1031900003208DF8220018208DF823002020ADF8A0
:1031A000200008A92348FEF7A1FF20212148FFF7AE
:1031B0007AF81020ADF8200008A91E48FEF796FF07
:1031C00010211C48FFF76FF84720ADF8140063206A
:1031D000ADF818000020ADF81600ADF81A008DF813
:1031E0001C0005A91448FFF75DFF7020ADF804002E
:1031F0000120ADF806000220ADF80C0001A90E4830
:10320000FFF79AFE08210C48FFF7E2FE01A90A48E1
:10321000FFF7E8FE08210848FFF736FF01210648BE
:10322000FFF761FE01210448FFF751FE09B000BD20
:1032300000081A00000C01400004004000B589B0ED
:1032400001210846FFF7DEFB01210846FFF7CAFB14
:1032500001210820FFF7D6FB03208DF8220018205B
:103260008DF823000820ADF8200008A92448FEF7B7
:103270003DFF08212248FFF718F84720ADF8140059
:103280006320ADF818000020ADF81600ADF81A0064
:103290008DF81C0005A91B48FFF704FF01211A48FF
:1032A000FEF7B0FF01211948FEF7ACFF7020ADF822
:1032B00004000120ADF806000020ADF8080002204F
:1032C000ADF80C000020ADF80E004FF48070ADF8A2
:1032D00010000020ADF8120001A94FF08040FFF768
:1032E00081FE0821C806FFF7CFFE01218807FFF7FE
:1032F000EEFD01218807FFF7F6FD09B000BD0000D3
:10330000000C0140002C01400003180000023000B6
:103310000448006820B103480068401E0149086065
:10332000704700004000002010B53848008840F287
:103330002551364800F0ABF8012860D1334800F041
:1033400061F9C4B2242C11D13148007870B9012040
:103350002F49087000202F490880084601880088FE
:10336000401C2C4A10802C48445407E0294801880E
:103370000088401C274A108027484454254800886C
:10338000B0F5007F07DB4FF400712348FCF705FF21
:103390000020204908801F480088032809DB1E48B8
:1033A00040781D49897840EA0120801C1B4908802B
:1033B00002E00020194908801848008800281EDD16
:1033C0001448008815490988884218DB01201449EF
:1033D000087010480088134908800E4802880E497A
:1033E0001148FCF7C1FE0B4801880B48FCF7D5FEDD
:1033F000002007490870094908800649088040F202
:103400002551024800F01BF810BD000000380140B3
:103410001E0000202600002058000020240000206C
:103420001F000020200000205802002001F400723C
:10343000B2F5007F00D100BFCA430280704710B5CB
:103440000022002340F66A14A14200D100BF0A12F4
:1034500001249440A3B2DC43048010BD21B18289D1
:1034600042F40052828104E082894DF6FF731A40D3
:103470008281704702460020B1F5007F00D100BF75
:1034800013880B400BB1012000E00020704770B59D
:103490000246002400230025002040F66A16B142AF
:1034A00000D100BFC1F3421501F01F03012606FA47
:1034B00003F3012D02D19689334006E0022D02D19B
:1034C000168A334001E0968A33400C12012606FA30
:1034D00004F41688344013B10CB1012000E0002040
:1034E00070BDF0B50346002400260025002040F6FC
:1034F0006A17B94200D100BF1846C1F3421401F067
:103500001F06012707FA06F5012C01D10C3004E053
:10351000022C01D1103000E014301AB107682F439B
:10352000076002E00768AF430760F0BD2DE9F04790
:1035300086B005460E460024A24600BFA1460027DD
:10354000B08900B100BF2F462C8A4CF6FF700440B2
:10355000F08804432C82AC894EF6F3100440B08806
:1035600031890843718908430443AC81AC8A4FF622
:10357000FF400440B0890443AC8201A8FFF762FA1F
:103580001F48874202D1DDF810A001E0DDF80CA051
:10359000A88900F4004040B10AEBCA0000EB0A1011
:1035A00031684900B0FBF1F807E00AEBCA0000EB14
:1035B0000A1031688900B0FBF1F86420B8FBF0F024
:1035C00004012009642101FB1089A88900F400404E
:1035D00040B1322000EBC900B0FBF1F000F0070071
:1035E000044308E0322000EB09106421B0FBF1F045
:1035F00000F00F0004432C8106B0BDE8F087000006
:103600000038014001468888C0F308007047C1F3C4
:10361000080282807047000000B585B002210C4886
:10362000FDF7CEFB012811D16A4600210848FDF7BD
:10363000EAFC6846FEF700F8012803D10549684610
:10364000FDF7C7FE02210248FDF7E2FA05B000BD12
:10365000006400402008002000BFFEE710B50446CB
:1036600044B100210120FFF7E9F801210220FFF712
:10367000E5F807E001210846FFF7E0F80021022005
:10368000FFF7DCF810BD10B5044644B1012103205A
:10369000FFF7D4F800210420FFF7D0F807E000215D
:1036A0000320FFF7CBF801210420FFF7C7F810BD76
:1036B00010B5044644B101210520FFF7BFF80021F1
:1036C0000620FFF7BBF807E000210520FFF7B6F85A
:1036D00001210620FFF7B2F8002010BD10B5044606
:1036E00044B100210720FFF7A9F801210820FFF7C6
:1036F000A5F807E001210720FFF7A0F80021082026
:10370000FFF79CF810BD10B5044644B10021092014
:10371000FFF794F801210A20FFF790F807E0012154
:103720000920FFF78BF800210A20FFF787F810BD6A
:1037300010B5044644B100210B20FFF77FF80121AA
:103740000C20FFF77BF807E001210B20FFF776F84C
:1037500000210C20FFF772F810BD10B5044644B1EB
:1037600000210D20FFF76AF801210E20FFF766F80F
:1037700007E001210D20FFF761F800210E20FFF77F
:103780005DF810BD10B5044644B100210F20FFF7CD
:1037900055F801211020FFF751F807E001210F2013
:1037A000FFF74CF800211020FFF748F810BD02E0A9
:1037B00008C8121F08C1002AFAD1704770470020BC
:1037C00001E001C1121F002AFBD1704700B587B08C
:1037D00001214802FFF716F901210420FFF712F931
:1037E0004FF40040FFF7E2F82F48FDF7C3F8002040
:1037F0008DF81B001020ADF8180006A92B48FEF725
:1038000075FC2020ADF8180006A92848FEF76EFCCC
:103810004020ADF8180006A92448FEF767FC2248AE
:10382000FDF7A8F80020019001208DF808008DF820
:1038300009004FF4602003900020049003208DF8CD
:10384000140001A91848FDF7D7F807230122042125
:103850001548FDF7F9F80723022205211248FDF764
:10386000F3F80723032206210F48FDF7EDF80121A5
:103870000D48FDF730F801210B48FDF721F80A4803
:10388000FDF73EF900BF0848FDF7ACF80028FAD173
:103890000548FDF745F900BF0348FDF799F80028F2
:1038A000FAD107B000BD000000240140000801402B
:1038B0002DE9F74F8AB089469246002008900A9871
:1038C000FCF7C6FE0190FCF7EAFE07462D4A2E4B98
:1038D000FCF7DDFD00222D4BCDE90201FCF749FE8E
:1038E0002B4A2C4BCDE90401FCF7D1FD2A4A2B4B86
:1038F000CDE90601FCF7C5FD0546FCF7E3FE83466E
:10390000012431E059F834005946FCF7F7FE29D27A
:10391000621E59F8321059F83400FCF79BFC621E05
:1039200009EBC2020790516809EBC4025068FCF72A
:1039300091FC0746601E59F830105846FCF78AFC87
:1039400080463946FCF78CFC06460799FCF7BAFC22
:103950000546601E09EBC00041682846FCF728FCBC
:10396000089003E0601CC4B25445CBDB00BF544553
:1039700004D1601E09EBC0004068089008980DB0A3
:10398000BDE8F08F6DE7FBA9F1D203400000B04025
:1039900008AC1C5A64DB5540BC7493180456D63FDF
:1039A000FFF7C8F9FEF748F8FEF70EFE41F61F4193
:1039B00040F2E730FFF758FAFDF784FEFEF7E8FE25
:1039C000FFF7C2FBFEF702FA05E0FEF723FEFDF764
:1039D00087FEFDF7BDF8F8E7C3F5C042000010C14F
:1039E00071BDC142000000C11F85C2420000E0C09D
:1039F000CD4CC3420000C0C07B14C4420000A0C034
:103A000048E1C442000080C0F6A8C542000040C0A2
:103A1000A470C642000000C05238C142000080BFFE
:103A20000000C84200000000AEC7C8420000803F4E
:103A30005C8FC942000000400A57CA420000404063
:103A4000B81ECB420000804066E6CB420000A0409A
:103A500014AECC420000C040C375CD420000E0402F
:103A6000713DCE42000000411F05CF4200001041D1
:103A7000CDCCCF42000020417B94D04200003041A9
:103A8000295CD14200004041D723D242000050417E
:103A900085EBD2420000604133B3D3420000704155
:103AA000E17AD442000080418F42D5420000884133
:103AB0003D0AD64200009041CDCCD642000098414C
:103AC0007B94D7420000A041295CD8420000A84165
:103AD000D723D9420000B04185EBD9420000B8415C
:103AE00033B3DA420000C041C375DB420000C84175
:103AF000713DDC420000D0411F05DD420000D8418D
:103B0000CDCCDD420000E0415C8FDE420000E841A8
:103B10000A57DF420000F041B81EE0420000F841C1
:103B200066E6E04200000042F6A8E14200000442DE
:103B3000A470E242000008425238E34200000C4206
:103B4000E1FAE342000010428FC2E4420000144256
:103B50003D8AE54200001842CD4CE64200001C427E
:103B60007B14E7420000204229DCE74200002442A7
:103B7000B89EE842000028426666E94200002C42F6
:103B8000F628EA4200003042A4F0EA420000344243
:103B900033B3EB4200003842E17AEC4200003C4291
:103BA000713DED42000040421F05EE4200004442DC
:103BB000CDCCEE42000048425C8FEF4200004C4208
:103BC000EC51F042000050429A19F1420000544278
:103BD00029DCF14200005842D7A3F24200005C42C7
:103BE0006666F34200006042142EF4420000644214
:103BF000A4F0F4420000684252B8F54200006C4262
:103C0000E17AF64200007042713DF74200007442D2
:103C10001F05F84200007842AEC7F84200007C421F
:103C20003D8AF942000080420A57FA42000082426F
:103C30009A19FB420000844229DCFB4200008642C4
:103C4000D7A3FC42000088426666FD4200008A421B
:103C5000F628FE4200008C4285EBFE4200008E42B8
:103C600033B3FF4200009042E13A00430000924229
:103C7000299C00430000944271FD004300009642DD
:103C800048610143000098428FC2014300009A42FC
:103C9000D723024300009C421F85024300009E423E
:103CA00066E602430000A042AE4703430000A24282
:103CB00085AB03430000A442CD0C04430000A642A0
:103CC000146E04430000A8425CCF04430000AA42E3
:103CD000A43005430000AC42EC9105430000AE4225
:103CE00033F305430000B0427B5406430000B24268
:103CF000C3B506430000B4420A1707430000B642AA
:103D0000527807430000B8429AD907430000BA42EC
:103D1000E13A08430000BC42299C08430000BE422F
:103D200071FD08430000C042B85E09430000C24272
:103D300000C009430000C44248210A430000C642B3
:103D40008F820A430000C842D7E30A430000CA42F8
:103D50001F450B430000CC4266A60B430000CE4239
:103D6000AE070C430000D042D7630C430000D242A0
:103D70001FC50C430000D44266260D430000D64206
:103D8000AE870D430000D842F6E80D430000DA424A
:103D90003D4A0E430000DC42F6A80E430000DE421E
:103DA0003D0A0F430000E042856B0F430000E242F2
:103DB000CDCC0F430000E442142E10430000E64235
:103DC0005C8F10430000E842A4F010430000EA4278
:103DD000EC5111430000EC42A4B011430000EE424C
:103DE000EC1112430000F042337312430000F24220
:103DF000ECD112430000F442333313430000F64287
:103E00007B9413430000F84233F313430000FA425B
:103E10007B5414430000FC42C3B514430000FE422F
:103E20007B14154300000043C37515430000014394
:103E30007BD4154300000243C335164300000343FF
:103E40007B94164300000443C3F51643000005436A
:103E50000A57174300000643C3B517430000074342
:103E60000A17184300000843C375184300000943AC
:103E70000AD7184300000A43C335194300000B4317
:103E80007B94194300000C4333F3194300000D43A6
:103E9000EC511A4300000E43C3B51A4300000F4310
:103EA0007B141B4300001043C3751B4300001143E8
:103EB0007BD41B4300001243C3351C430000134353
:103EC0007B941C4300001443C3F51C4300001543BE
:103ED0007B541D4300001643C3B51D430000174328
:103EE0007B141E430000184333731E430000194324
:103EF0007BD41E4300001A4333331F4300001B438F
:103F00005C8F1F4300001C43A4F01F4300001D43AF
:103F10005C4F204300001E4314AE204300001F43AB
:103F2000CD0C214300002043146E214300002143A7
:103F3000CDCC214300002243852B224300002343A4
:103F40003D8A224300002443F6E822430000254333
:103F5000AE47234300002643F6A82343000027432F
:103F6000AE0724430000284366662443000029432B
:103F70001FC5244300002A43D723254300002B43B9
:103F80008F82254300002C4348E1254300002D4348
:103F90000040264300002E43B89E264300002F43D6
:103FA0000000274300003043B85E27430000314340
:103FB00071BD274300003243291C284300003343CE
:103FC000E17A2843000034439AD92843000035435E
:103FD00052382943000036430A97294300003743EB
:103FE000C3F52943000038437B542A43000039437A
:103FF000A4B02A4300003A435C0F2B4300003B432C
:10400000146E2B4300003C43CDCC2B4300003D43BA
:10401000852B2C4300003E433D8A2C4300003F4348
:10402000F6E82C43000040431F452D430000414368
:10403000D7A32D43000042438F022E430000434389
:10404000D7632E430000444300C02E430000454385
:10405000B81E2F4300004643717D2F4300004743A5
:1040600029DC2F4300004843000021104220633028
:104070008440A550C660E770088129914AA16BB1C0
:104080008CC1ADD1CEE1EFF1A840000800000020C6
:1040900058000000AE37000800410008580000201A
:1040A000F00C0000BE37000800000000010203040D
:1040B00001020304060708090204060800000000C4
:1040C00000000000000000000000000000000000F0
:1040D000000000000000000000020000571BB400B8
:1040E00000000000000000000000000000000000D0
:1040F00000000000000000000000000000000000C0
:0400000508000131BD
:00000001FF
